S00D0000706C6573732E73726563F0
S11300000C945A000C946C000C946C000C946C00CE
S11300100C946C000C946C000C946C000C946C00AC
S11300200C946C000C946C000C946C000C946C009C
S11300300C946C000C946C000C946C000C946C008C
S11300400C946C000C946C000C946C000C946C007C
S11300500C946C000C946C000C946C000C946C006C
S11300600C946C000C946C000C946C000C946C005C
S11300700C946C000C946C000C946C000C946C004C
S11300800C946C000C946C000C946C000C946C003C
S11300900C946C000C946C000C946C000C946C002C
S11300A00C946C000C946C000C946C000C946C001C
S11300B00C946C0011241FBECFEFD8E0DEBFCDBF7F
S11300C021E0A0E0B1E001C01D92A03CB207E1F73D
S11300D00E94BE000C94D0000C940000FC014598D2
S11300E03D9AF8949B0121503109672B09F425C0EE
S11300F00190008007D0029005D0019001900190FA
S113010001D017C008D007D006D005D004D003D042
S113011002D001D00895459A001C0000000008F0A8
S113012045980000000000000000000008F4459815
S113013008952150310908F0DBCF78948FE391E0E2
S11301400197F1F700C000000895E0E0F1E080E0DD
S11301509BE423E3803320F090831182928309C0CF
S1130160803120F010821182128203C09083218397
S113017012828F5F3396803469F708950E94A50038
S113018060E470E080E091E00E946E002FEF81EE69
S113019094E0215080409040E1F700C00000EECF91
S10701A0F894FFCFFD
S9030000FC
