S00C00006B6F64652E7372656375
S1130000ADC00000CAC00000C8C00000C6C00000E7
S1130010C4C00000C2C00000C0C00000BEC00000D8
S1130020BCC00000BAC00000B8C0000037C3000064
S1130030B4C00000B2C00000B0C00000AEC00000F8
S1130040ACC00000AAC00000A8C00000A6C0000008
S1130050A4C0000016C50000A0C000009EC000009F
S11300609CC000004BC2000098C0000096C0000075
S113007094C0000092C0000090C000008EC0000038
S11300808CC000008AC0000088C0000086C0000048
S113009069C2000082C0000080C000007EC0000071
S11300A07CC000007AC0000078C0000076C0000068
S11300B074C0000072C0000070C000006EC0000078
S11300C06CC000006AC0000068C000007FC200006D
S11300D064C0000062C00000ADC200005EC0000049
S11300E05CC00000BF03310431043104C503310492
S11300F031043104C803310431043104CC03310424
S113010031043104D103310431043104D7033104FF
S113011031043104DC03310431043104E2033104D9
S113012031043104E903310431043104EF033104AF
S1130130310431041004E2041705E8041705EB0444
S11301401705EF041705F4041705FA041705FF044F
S11301501705050517050C051705120511241FBE03
S1130160CFEFD1E2DEBFCDBF00E00CBF13E0A0E0D3
S1130170B2E0E8EFFAE000E00BBF02C007900D9296
S1130180AE3EB107D9F725E0AEEEB3E001C01D9253
S1130190AE3BB207E1F773D0ADC432CF1F93CF9318
S11301A0DF93D82F88231CF061E098D117C0E82F83
S11301B0EF77F0E0E259FD4FC081EC2FF0E0E05F13
S11301C0FD4F80818F3F51F0CF5F61E087D1EC2FED
S11301D0F0E0E05FFD4F80818F3FB1F78CEE8D0F33
S11301E08C3618F48D2F67D013C08BE564D0ED2FB7
S11301F0E295EF70F0E0E050FE4F80815CD0ED2F8F
S1130200EF70F0E0E050FE4F808155D08DE553D083
S1130210CD2FD0E0FE01E251FC4F10811F3F61F071
S11302201123E4F48CE24DD2812F8F774AD2812FAF
S1130230806847D28CEA45D2C251DD4FC881CF3F96
S1130240D1F0CC2394F48AE25FD38C2F8F775CD3E4
S11302508C2F806859D38AEA57D30DC0812F8F77AA
S113026030D2812F80682DD2E7CF8C2F8F774CD35B
S11302708C2F806849D3DF91CF911F91089533D09B
S11302802FEF83ED90E3215080409040E1F700C0D0
S1130290000007D31ED081E069D0892B21F081E0D2
S11302A0EBD08F777BDF82E061D0892BA1F382E0F2
S11302B0E3D074DFF0CF63E011C108958EEFFBDF6C
S11302C080E8F9CF08958EEFF6DF81E0F4DFF6CF12
S11302D008958EEFF0DF8CE0EEDFF5DF8EEFEBDFDD
S11302E08DE0E9CF0895F8948FEF8093040181E8BD
S11302F096E09093C5008093C40087E690E09093C5
S1130300CD008093CC002FE931E03093D5002093C9
S1130310D4009093350180933401E4E6F0E08081C9
S11303208D7F8083E5E6F0E08081887F8083E1EC47
S1130330F0E0808188608083E9ECF0E08081886966
S11303408083E1EDF0E0808180698083E1E3F1E086
S11303508081886080838EE08093C2008093CA008D
S11303608093D2008093320178940895811108C05B
S113037081E090E020917505211121C080E008956D
S1130380813039F490E020915305211118C080E0A8
S11303900895823041F481E090E0209131052111EB
S11303A00EC080E00895833041F481E090E0209114
S11303B00F05211104C080E0089580E090E00895C5
S11303C0809175058823F1F3F89490917405E92FD1
S11303D0F0E0EC5AFA4F80819F5F9F71909374050F
S11303E09091750591509093750578940895809136
S11303F053058823F1F3F89490915205E92FF0E026
S1130400EE5CFA4F80819F5F9F71909352059091AB
S11304105305915090935305789408958091310534
S11304208823F1F3F89490913005E92FF0E0E05F30
S1130430FA4F80819F5F9F719093300590913105B1
S11304409150909331057894089580910F058823F5
S1130450F1F3F89490910E05E92FF0E0E251FB4F8F
S113046080819F5F9F7190930E0590910F0591502D
S113047090930F0578940895811102C0A1CF089537
S1130480813011F4B4CF0895823011F4C7CF0895A8
S1130490833011F4DACF089580E00895E0ECF0E0C1
S11304A0908195FFFDCF8093C6000895E8ECF0E0BD
S11304B0908195FFFDCF8093CE000895E0EDF0E0AC
S11304C0908195FFFDCF8093D6000895E0E3F1E09D
S11304D0908195FFFDCF809336010895611102C08C
S11304E0DDCF0895613011F4E1CF0895623011F445
S11304F0E5CF0895633009F4E9CF08951F920F9270
S11305000FB60F9211240BB60F922F938F939F93D4
S1130510EF93FF938091C0008823BCF4809175050C
S1130520803298F4F894809175059091C6002091DA
S11305307405E82FF0E0E20FF11DEF71FF27EC5A8C
S1130540FA4F90838F5F809375057894FF91EF91B4
S11305509F918F912F910F900BBE0F900FBE0F9014
S11305601F9018951F920F920FB60F9211240BB67D
S11305700F922F938F939F93EF93FF938091C800D3
S11305808823BCF480915305803298F4F8948091C8
S113059053059091CE0020915205E82FF0E0E20F30
S11305A0F11DEF71FF27EE5CFA4F90838F5F80930C
S11305B053057894FF91EF919F918F912F910F9014
S11305C00BBE0F900FBE0F901F9018951F920F92A5
S11305D00FB60F9211240BB60F922F938F939F9304
S11305E0EF93FF938091D0008823BCF48091310570
S11305F0803298F4F894809131059091D60020913E
S11306003005E82FF0E0E20FF11DEF71FF27E05F06
S1130610FA4F90838F5F809331057894FF91EF9127
S11306209F918F912F910F900BBE0F900FBE0F9043
S11306301F9018951F920F920FB60F9211240BB6AC
S11306400F922F938F939F93EF93FF938091300199
S11306508823BCF480910F05803298F4F89480913B
S11306600F059091360120910E05E82FF0E0E20F7E
S1130670F11DEF71FF27E251FB4F90838F5F809351
S11306800F057894FF91EF919F918F912F910F9087
S11306900BBE0F900FBE0F901F9018951F920F92D4
S11306A00FB60F9211240F900FBE0F901F90189544
S11306B0F89410927A0510927B051092790578943B
S11306C0089590917B059032A8F4F89490917A055E
S11306D0E0917B05F0E0E90FF11DEF71FF27E2588F
S11306E0FA4F808380917B058F5F80937B0578949C
S11306F081E0089580E0089590910801282F2170E9
S113070080FF02C08FEF01C087EF9823E8E0F1E09B
S113071090839081822F880F880F880F892B808384
S1130720089580917B05882309F4B1C0209179054F
S1130730E6E0F1E08081908181709270892B822BB8
S113074009F4A5C0809179058C3208F08AC08091A3
S11307507905837009F06AC0E0917A05F0E0E25807
S1130760FA4F90814091790550E04932510508F0E3
S113077078C0FA018827EE58FF4F8F4FB3C1E8E0E5
S1130780F1E08081877F80836CC0892FB5DF69C0E9
S1130790892F8695B1DF65C0892F86958695ACDF54
S11307A060C0892F869586958695A6DF5AC0892FC5
S11307B082958F70A1DF55C0892F829586958770A9
S11307C09BDF4FC0892F829586958695837094DF31
S11307D048C0892F881F8827881F8EDF42C0292F91
S11307E02695892F86958695820F890F292F269520
S11307F026952695820F292F22952F70820F292F57
S1130800229526952770280F892F8295869586959F
S11308108370820F991F9927991F890F6DDF21C05B
S1130820E8E0F1E08081886080831BC080917905D5
S113083090E0019783709927892B31F4E8E0F1E087
S113084080818B7F80830DC08091790590E0039730
S113085083709927892B29F4E8E0F1E08081846092
S11308608083809179058F5F8093790580917905E4
S11308708E3568F080917A058F5F8F7180937A0549
S113088080917B05815080937B05109279050895B2
S1130890F894109277051092780510927605789462
S11308A00895A7E0B1E08C918C7C8C93E8E0F1E0B2
S11308B080818C7C80838C918C6C8C9380818C6403
S11308C0808380818F778083F89410927D051092C5
S11308D07C0584B5826084BD85B5826085BD87E270
S11308E087BDEEE6F0E0808182608083EDE6F0E093
S11308F0808181618083E8E6F0E080818460808388
S11309007894D6DEC5CF0895909178059032B8F4E6
S1130910F89490917705E0917805F0E0E90FF11DE6
S113092097FDFA95EF71FF27E256FA4F8083809185
S113093078058F5F80937805789481E0089580E04E
S113094008959091080180FF02C02FEF01C02FE7A6
S11309509223E8E0F1E09083208130E8839FC00196
S11309601124822B8083089580917805882309F4CB
S113097087C080917605E6E0F1E0908120812072C5
S11309809071292B082E000C990B822B892B09F4CA
S113099077C0E09177050E2E000CFF0BE256FA4F5C
S11309A0908140917605042E000C550B660B770B55
S11309B04331510508F03BC0FA018827E556FF4F43
S11309C08F4F90C0E8E0F1E08081806880832FC081
S11309D0892FB7DF2CC0892F8695B3DF28C0892FD4
S11309E086958695AEDF23C0892F86958695869554
S11309F0A8DF1DC0892F82958F70A3DF18C0892FAF
S1130A008295869587709DDF12C0892F8295869581
S1130A108695837096DF0BC0892F881F8827881FCF
S1130A2090DF05C0E8E0F1E080818F7780838091DA
S1130A30760580FF0AC080917605843134F4E8E0BD
S1130A40F1E080818F7B808305C0E8E0F1E0808164
S1130A5080648083809176058F5F80937605809192
S1130A60760586346CF0809177058F5F8F71809363
S1130A7077058091780581508093780510927605EA
S1130A8008951F920F920FB60F9211240BB60F9276
S1130A902F933F934F935F936F937F938F939F9382
S1130AA0AF93BF93EF93FF9380917C0590917D0565
S1130AB0449690937D0580937C0556DF32DEFF914A
S1130AC0EF91BF91AF919F918F917F916F915F91C2
S1130AD04F913F912F910F900BBE0F900FBE0F902F
S1130AE01F901895EE0FFF1F881F8BBF0790F6917C
S10B0AF0E02D1994F894FFCFE6
S1130AF83031323334353637383941424344454648
S1130B08FF08FF1CFF0BFF1DFF18FF0DFF0AFF0D59
S1130B180AFF1BFF1B5BFF19FF04FF09FF1B5B5A3E
S1130B28FF1B5B69FF1B5B3469FF0CFF17FFCEFFDC
S1130B38CFFF1B5B4DFF1B5B4CFF1B5B50FF1B5B1D
S1130B4840FF30FF31FF32FF33FF34FF35FF36FFFC
S1130B5837FF38FF39FF2DFF2EFF20FF03FF00006A
S1130B680000000000000000000000000000000079
S1130B78000000000000001B0D140000000000002D
S1130B8800000000000000000000000000003E0318
S1130B9805090100000007000000363200003A0091
S1130BA8002A2C00000000001D00000B2E3000005D
S1130BB80000000000000000001200000000424491
S1130BC846484A4C4E50525456585A0F000017196A
S1130BD800005C000000005C000021255C00FFFFB1
S1130BE8FFFFFFFFFFFF0E0F1CFFFF1CFFFFFFFFB0
S1130BF8FFFFFFFFFFFFFFFFFF01FFFFFFFF39823A
S1130C08A884858688288A8B898D330C34350B0211
S1130C18030405060708090AA727B30DB4B5839E7C
S1130C28B0AEA092A1A2A397A4A5A6B2B198999098
S1130C38939F9496AF91AD95AC1A2B1B878CFF1E8E
S1130C48302E201221222317242526323118191078
S1130C58131F14162F112D152C9AAB9BA90EFFFFE9
S1130C68FFFFFFFFFFFFFFFFFFFFFFFFFFFFFFFF88
S1130C78FFFFFFFFFFFFFF4F1CFFFFFFFFFF3B3C92
S1130C883D3E3F4041424344FFFFFFFFFFFF5248C0
S1130C98504D4BFFFFFF47FFFFFF5253FFFF53FF2A
S1130CA8FF4951FFFFFFFFFF47FFFF1C3A45FFFFC6
S1130CB8FFFFFFFFFFFFFFFFFF01FFFFFFFFD2CF93
S1130CC8D0D1CBCCCDC7C8C94AD3391CFFFF0E0E2F
S1110CD8FFFFFFFFFFFF46FF1C0EB7FFFFFFED
S9030000FC
